:030000000200C635
:0C00C600787FE4F6D8FD7581090200B8CF
:0E00B80012009D12000312007D12002F80F234
:04005B007FF47E01AF
:10005F00D3EF9400EE940040147D6E7C00ED1D7084
:0D006F00011CED4C70F7EF1F70E61E80E3E2
:01007C002261
:10009D00758001E4FBFA12005BE58025E0F5800B2D
:0A00AD00BB00010AEB64084A70EC86
:0100B7002226
:10000300758001E4FBFA75800190000012005BE546
:100013008025E025E0F580A3E5826404458370EC48
:0B0023000BBB00010AEB64034A70DB1A
:01002E0022AF
:10007D00E4FBFA758080D3EB9407EA9400401012EC
:0F008D00005BE580C313F580EB1B70EA1A80E778
:01009C002241
:10002F00758020E4FBFA75802090000012005BE5DC
:10003F00801313543FF580A3E5826404458370EC6D
:0B004F000BBB00010AEB64044A70DBED
:01005A002283
:00000001FF
