:0300000002007D7E
:0C007D00787FE4F6D8FD758109020003CD
:1000030075080075090475800112005B7580041280
:10001300005B75801012005B75804012005BE50980
:10002300150970021508D3E5099400E508940050FA
:10003300D5C3E5099403E508940050C475802012E4
:10004300005B75800812005B75800212005B050976
:08005300E50970DD050880D904
:04005B007FF47E01AF
:10005F00D3EF9400EE940040147D6E7C00ED1D7084
:0D006F00011CED4C70F7EF1F70E61E80E3E2
:01007C002261
:00000001FF
